:100000000C9476000C949E000C949E000C949E0020
:100010000C949E000C949E000C949E000C949E00E8
:100020000C949E000C949E000C949E000C94FD0277
:100030000C949E000C949E000C949E000C949E00C8
:100040000C94CF070C949E000C947C0A0C94AE0A7E
:100050000C949E000C949E000C949E000C949E00A8
:100060000C94A2060C949E00084AD73B3BCE016E2E
:1000700084BCBFFDC12F3D6C74319ABD56833DDAFF
:100080003D00C77F11BED9E4BB4C3E916BAAAABE0E
:10009000000000803F000000000800020100000393
:1000A0000407000000000000000001020408102006
:1000B00040800102040810200102040810200404FA
:1000C0000404040404040202020202020303030300
:1000D000030300000000250028002B0000000000A2
:1000E000240027002A00D700C005DE0A11241FBE05
:1000F000CFEFD8E0DEBFCDBF11E0A0E0B1E0EAE78E
:10010000FDE102C005900D92A432B107D9F722E0BB
:10011000A4E2B1E001C01D92A83DB207E1F710E0F2
:10012000CCEED0E004C02297FE010E94A80EC63E8D
:10013000D107C9F70E94220B0C94BB0E0C9400004F
:10014000DC01ED91FC910190F081E02D099482E7B2
:1001500091E00E94880568E670E082E791E00E94E5
:10016000AB056BE670E082E791E00E94A00060E0E2
:1001700070E082E791E00E94A00061E082E791E0F8
:100180000E94AD0565E070E089E491E00E945304AF
:1001900066E070E086E491E00E94530426E040E0CF
:1001A00056E960E070E08BE392E00C941A0A89E46F
:1001B00091E00E94B90386E491E00C94B9034F9258
:1001C0005F926F927F928F929F92AF92BF92CF92E7
:1001D000DF92EF92FF920F931F93CF93DF9368E626
:1001E00070E082E791E00E94AB056BE370E082E78C
:1001F00091E00E94A00060E082E791E00E94AD05DE
:1002000021E030E046E050E068E670E082E791E00F
:100210000E949F0582E791E00E94F904C82F82E7BF
:1002200091E00E94F90420E030E03C2F822B932BD8
:10023000909345018093440182E791E00E94F90484
:10024000C82F82E791E00E94F90420E030E03C2FC3
:10025000822B932B909343018093420182E791E09C
:100260000E94F904C82F82E791E00E94F90460E03F
:1002700070E07C2FEB01C82BD92BD0934101C093A8
:1002800040016091440170914501882777FD809578
:10029000982F0E94C90C20E030E040E858E30E940B
:1002A000810D4B015C0160914201709143018827EF
:1002B00077FD8095982F0E94C90C20E030E040E83F
:1002C00058E30E94810D6B017C01BE01882777FDF8
:1002D0008095982F0E94C90C20E030E040E858E358
:1002E0000E94810D9B01AC010E94810D2B013C01FC
:1002F000A7019601C701B6010E94810DA3019201D9
:100300000E94A20B0E94E80D9B01AC01C501B40143
:1003100090580E942E0C0E94060CC8E3D1E021EEFA
:100320003EE245E652E40E94810D688379838A8328
:100330009B83A5019401C501B4010E94810DA30115
:1003400092010E94A20B0E94E80D9B01AC01C70123
:10035000B6010E942E0C0E94060C24E3E22E21E03E
:10036000F22E21EE3EE245E652E40E94810DF701B5
:10037000608371838283938368E670E082E791E013
:100380000E94AB0563E470E082E791E00E94A00068
:1003900060E082E791E00E94AD0521E030E044E0BA
:1003A00050E068E670E082E791E00E949F0582E7F6
:1003B00091E00E94F904182F82E791E00E94F9046D
:1003C00020E030E0312F822B932B90933F018093DC
:1003D0003E0182E791E00E94F904D82E82E791E085
:1003E0000E94F90400E010E01D2D082B192B10933A
:1003F0003D0100933C0160913E0170913F018827CF
:1004000077FD8095982F0E94C90C20E030E043E0F2
:1004100053E40E942E0C2B013C0160932C0170933D
:100420002D0180932E0190932F01B801882777FD2D
:100430008095982F0E94C90C20E030E043E053E4FF
:100440000E942E0C4B015C016093300170933101CE
:10045000809332019093330104E211E02AE037EDFA
:1004600043E25CE3C301B2010E94810DF8012081E7
:100470003181428153810E94A20B28E431EE4AE788
:100480005FE30E94810D2B013C012AE037ED43EA36
:100490005CE3F70160817181828193810E94810D0B
:1004A0009B01AC01C301B2010E94A20B6B017C0154
:1004B000F801608371838283938308E211E02AE06C
:1004C00037ED43E25CE3C501B4010E94810DF80100
:1004D00020813181428153810E94A20B28E431EEB8
:1004E0004AE75FE30E94810D4B015C012AE037ED92
:1004F00043EA5CE3688179818A819B810E94810D56
:100500009B01AC01C501B4010E94A20B2B013C016F
:10051000F801608371838283938320E030E048ECAC
:1005200052E4C701B6010E94810D0E94960C8827F3
:1005300077FD8095982F1F921F921F92C7E8CF9347
:100540003FE1A32EB12CC12CD12C18EBE12E1BE0E6
:10055000F12E00E010E024EB32EE4FEF5FEF0E944F
:10056000590B0E94C90C0E94960C89E491E00E94EC
:100570008C0420E030E048EC52E4C301B2010E9458
:10058000810D0E94960C882777FD8095982F1F92E9
:100590001F921F92CF9310EAE12E1FE0F12E00E090
:1005A00010E028EA34EE4FEF5FEF0E94590B0E94F3
:1005B000C90C0E94960C86E491E00E948C048DB7D1
:1005C0009EB708960FB6F8949EBF0FBE8DBF65E02C
:1005D00070E080E090E0DF91CF911F910F91FF904C
:1005E000EF90DF90CF90BF90AF909F908F907F90D3
:1005F0006F905F904F900C943C081F920F920FB633
:100600000F9211242F933F934F935F936F937F9398
:100610008F939F93AF93BF93EF93FF9380914D017F
:1006200087FF05C010928500109284001AC02091A7
:100630004D01332727FD309580914C0190E028171C
:1006400039077CF480914D01992787FD9095FC0135
:10065000EE0FFF1FE80FF91FE25BFE4F808186FD62
:1006600015C080914D018F5F80934D0120914D0108
:10067000332727FD309580914C0190E028173907EA
:10068000BCF480914D018C305CF112C080914D0121
:10069000992787FD9095FC01EE0FFF1FE80FF91FCA
:1006A000E25BFE4F808160E08F730E940109D9CF29
:1006B0008091840090918500049680349C4918F4C0
:1006C00080E49CE905C080918400909185000496A7
:1006D00090938900809388008FEF80934D0138C0FC
:1006E000209184003091850080914D01992787FDEC
:1006F0009095FC01EE0FFF1FE80FF91FE25BFE4F24
:1007000081819281820F931F90938900809388004A
:1007100080914D01992787FD9095FC01EE0FFF1FF9
:10072000E80FF91FE25BFE4F808186FF11C08091C8
:100730004D01992787FD9095FC01EE0FFF1FE80FF3
:10074000F91FE25BFE4F808161E08F730E94010917
:10075000FF91EF91BF91AF919F918F917F916F9199
:100760005F914F913F912F910F900FBE0F901F906F
:10077000189520914C012C30A0F431E0320F3093C9
:100780004C01FC012083822F90E0FC01EE0FFF1F43
:10079000E80FF91FE25BFE4F88EB9BE092838183B9
:1007A00008952FEFFC0120830895DF92EF92FF92CE
:1007B0000F931F93CF93DF93EC01D62E7A0189011B
:1007C00088818C3008F066C061E08D2D0E94C808D9
:1007D0008881A82FB0E0FD01EE0FFF1FEA0FFB1F7D
:1007E000E25BFE4F2D2D2F739081907C922B908396
:1007F00060E272E06E197F0977FF02C06D5F7F4F84
:100800007595679575956795698340E659E0401B36
:10081000510B57FF02C04D5F5F4F5595479555955A
:1008200047954A836CE00E944E0E9CE0899FB00180
:10083000112420E030E0A901460F571FFA01EE0F06
:10084000FF1FE40FF51FE25BFE4F908196FD16C07F
:100850002F5F3F4F2C30310571F781110FC010927F
:10086000800082E0809381001092850010928400C5
:10087000B19A80916F00826080936F00888190E0D0
:10088000FC01EE0FFF1FE80FF91FE25BFE4F8081B6
:10089000806480838881DF91CF911F910F91FF90B9
:1008A000EF90DF90089520E639E040E252E00C94AA
:1008B000D503FC0180818C3070F5918128E830E00F
:1008C000291B310997FD3395220F331F220F331F48
:1008D000621773077CF0928128E532E0291B310909
:1008E00097FD3395220F331F220F331F62177307B3
:1008F0000CF49B0122503109220F331F4FB7F8949B
:1009000090E0FC01EE0FFF1FE80FF91FE25BFE4FC6
:10091000328321834FBF08954F925F926F927F92EF
:10092000AF92BF92CF92DF92EF92FF920F931F93FD
:10093000CF93DF93EC01603282E078070CF040C087
:1009400077FD06C0653B71052CF064EB70E002C0DA
:1009500060E070E0898128E830E0281B310987FDDC
:100960003395220F331F220F331F5901CC24B7FCBC
:10097000C094DC2C882777FD8095982F2A8148E544
:1009800052E0421B510927FD5395440F551F440F58
:10099000551F2A01662457FC6094762C7F926F9233
:1009A0005F924F9214EBE12EF12C00E010E020E07A
:1009B00030E0A9010E94590B0F900F900F900F90FB
:1009C000CE01DF91CF911F910F91FF90EF90DF90BB
:1009D000CF90BF90AF907F906F905F904F900C94AE
:1009E00059048091A20190E02091A301821B9109FA
:1009F00008952091A3018091A201281750F4E22FBD
:100A0000F0E0EC55FE4F808190E02F5F2093A30132
:100A100008958FEF9FEF0895E091A3018091A201C7
:100A2000E81730F4F0E0EC55FE4F808190E0089537
:100A30008FEF9FEF08950895CF92DF92EF92FF928C
:100A40000F931F93CF93DF937C01CB018A012091F9
:100A50007E01222389F0EB016B01C40ED51ECC155B
:100A6000DD0569F06991D701ED91FC910190F0816C
:100A7000E02DC7010995F3CF642F0E947906C801C4
:100A8000DF91CF911F910F91FF90EF90DF90CF906A
:100A90000895CF93DF931F92CDB7DEB7698320917E
:100AA0007E012223D1F020917F01203240F021E00D
:100AB00030E0FC013383228380E090E015C0809118
:100AC0008001E82FF0E0EF57FE4F998190838F5F10
:100AD0008093800180937F0105C061E0CE01019683
:100AE0000E94790681E090E00F90DF91CF91089508
:100AF000FC011382128248EE53E060E070E0448310
:100B000055836683778388E091E09183808308959D
:100B10001092A3011092A2011092800110927F0105
:100B20000C94C405862F413208F040E264EA71E07B
:100B30000E94E2051092A3018093A20108950C94F3
:100B4000920581E080937E016093A1011092800163
:100B500010927F0108950C94A1050F93062F21E0B8
:100B600040917F0161E871E08091A1010E94260619
:100B70001092800110927F0110927E010F910895D2
:100B800082E791E00C9478051092310281E0809325
:100B90002F0210922E0261E082E10E94010961E0C1
:100BA00083E10E940109E9EBF0E080818E7F808380
:100BB00080818D7F808388E48093B80085E4809372
:100BC000BC000895413208F03FC09091310291116C
:100BD000FCCF91E09093310220932F022FEF2093CE
:100BE000C40110920902240F20930802909330024E
:100BF00090913002880F892B8093300280912E02D1
:100C0000813041F410922E02809130028093BB001B
:100C100085EC01C085EE8093BC008091310281306B
:100C2000E1F380910902841710F4409109022AE04F
:100C300032E0FB01D9018A2F821B841718F48D91B1
:100C40008193F9CF842F089580E008950F93413266
:100C500008F046C0909131029111FCCF92E0909340
:100C6000310200932F029FEF9093C401109209026A
:100C700040930802FB016AE072E0DB019A2F961BA9
:100C8000941718F491919D93F9CF1092300290919E
:100C90003002880F892B8093300280912E028130A0
:100CA00041F410922E02809130028093BB0085ECBB
:100CB00001C085EE8093BC00222321F08091310297
:100CC0008230E1F38091C4018F3F61F08091C401D3
:100CD000803251F08091C401803341F483E007C039
:100CE00081E005C080E003C082E001C084E00F9194
:100CF0000895613298F420913102243089F4609390
:100D0000E601FC0188EE91E0DC012A2F281B261762
:100D100018F421912D93F9CF80E0089581E0089592
:100D200082E0089585ED8093BC008091BC0084FD35
:100D3000FCCF10923102089585EC8093BC00109294
:100D4000310208951F920F920FB60F9211242F9324
:100D50003F934F935F936F937F938F939F93AF9343
:100D6000BF93EF93FF938091B900887F803609F499
:100D70009CC068F5883209F45BC090F4803109F4B6
:100D800054C038F4882309F4F5C0883009F44DC004
:100D9000F5C0883109F44CC0803209F45DC0EEC062
:100DA000803409F468C048F4803309F455C08833AE
:100DB00009F0E4C08093C401A8C0803509F44FC095
:100DC000883509F45DC0883409F0D8C0D5C08839A9
:100DD00009F4C6C0A8F4883709F467C038F4883627
:100DE00009F463C0803709F460C0C8C0883809F4CA
:100DF000B7C0803909F45FC0803809F0BFC05BC05C
:100E0000803B09F485C038F4803A09F466C0883A1A
:100E100009F47EC0B3C0803C09F4A6C0883C09F444
:100E2000A3C0883B09F489C0A9C08091300210C0DA
:100E30009091090280910802981770F5E0910902DB
:100E400081E08E0F80930902F0E0E65FFD4F808124
:100E50008093BB0085EC85C08093C4018DC0E09178
:100E6000090281E08E0F809309028091BB00F0E0BF
:100E7000E65FFD4F808390910902809108026DC06A
:100E8000E091090281E08E0F809309028091BB00FE
:100E9000F0E0E65FFD4F808380912F0281116CC0EE
:100EA00081E080932E0284EA60C083E08093310267
:100EB0001092C501CFCF8091C501803208F050C09B
:100EC000E091C50181E08E0F8093C5018091BB0048
:100ED000F0E0EA53FE4F8083BDCF8091C5018032A0
:100EE00030F4E091C501F0E0EA53FE4F10820E9419
:100EF00092066091C50170E0E0912A02F0912B0208
:100F000086EC91E009951092C5010E949C0636C0BE
:100F100084E0809331021092E7011092E601E091A3
:100F20002C02F0912D0209958091E601811105C0F6
:100F300081E08093E6011092E801E091E70181E011
:100F40008E0F8093E701F0E0E851FE4F808180939F
:100F5000BB009091E7018091E601981708F47ACFE1
:100F600085E88093BC000AC085EC8093BC00109299
:100F7000310204C01092C4010E949206FF91EF91C9
:100F8000BF91AF919F918F917F916F915F914F91A1
:100F90003F912F910F900FBE0F901F9018951F92A9
:100FA0000F920FB60F9211242F933F938F939F931D
:100FB000AF93BF938091330290913402A091350298
:100FC000B09136023091320223E0230F2D3720F406
:100FD0000196A11DB11D05C026E8230F0296A11D93
:100FE000B11D209332028093330290933402A09378
:100FF0003502B09336028091370290913802A09169
:101000003902B0913A020196A11DB11D80933702B9
:1010100090933802A0933902B0933A02BF91AF91F6
:101020009F918F913F912F910F900FBE0F901F9026
:1010300018953FB7F8948091370290913802A091AB
:101040003902B0913A0226B5A89B05C02F3F19F08E
:101050000196A11DB11D3FBF6627782F892F9A2FBA
:10106000620F711D811D911D42E0660F771F881F61
:10107000991F4A95D1F70895CF92DF92EF92FF9290
:10108000CF93DF936B017C010E941908EB01C1141F
:10109000D104E104F10489F00E94A00B0E94190818
:1010A0006C1B7D0B683E734090F381E0C81AD10839
:1010B000E108F108C851DC4FEACFDF91CF91FF90F2
:1010C000EF90DF90CF900895789484B5826084BDCE
:1010D00084B5816084BD85B5826085BD85B581603C
:1010E00085BDEEE6F0E0808181608083E1E8F0E09C
:1010F0001082808182608083808181608083E0E8CB
:10110000F0E0808181608083E1EBF0E080818460A9
:101110008083E0EBF0E0808181608083EAE7F0E0AB
:10112000808184608083808182608083808181600F
:1011300080838081806880831092C100089583300D
:1011400081F028F4813099F08230A1F00895873041
:10115000A9F08830B9F08430D1F4809180008F7D7F
:1011600003C0809180008F7780938000089584B5BC
:101170008F7702C084B58F7D84BD08958091B000C3
:101180008F7703C08091B0008F7D8093B000089569
:10119000CF93DF9390E0FC01E655FF4F2491FC01D3
:1011A000E254FF4F8491882349F190E0880F991F02
:1011B000FC01E452FF4FA591B4918E529F4FFC0168
:1011C000C591D4919FB7611108C0F8948C91209576
:1011D00082238C93888182230AC0623051F4F89470
:1011E0008C91322F309583238C938881822B888336
:1011F00004C0F8948C91822B8C939FBFDF91CF9188
:1012000008950F931F93CF93DF931F92CDB7DEB74F
:10121000282F30E0F901EA56FF4F8491F901E65595
:10122000FF4F1491F901E254FF4F04910023C9F0DC
:10123000882321F069830E949F086981E02FF0E0F4
:10124000EE0FFF1FEE52FF4FA591B4919FB7F89498
:101250008C91611103C01095812301C0812B8C9367
:101260009FBF0F90DF91CF911F910F910895FC01C7
:10127000818D228D90E0805C9F4F821B91098F733E
:1012800099270895FC01918D828D981731F0828DF8
:10129000E80FF11D858D90E008958FEF9FEF089581
:1012A000FC01918D828D981761F0828DDF01A80F6E
:1012B000B11D5D968C91928D9F5F9F73928F90E090
:1012C00008958FEF9FEF089584ED9AE0892B49F000
:1012D00080E090E0892B29F00E94D40A81110C94BF
:1012E00000000895FC01848DDF01A80FB11DA35AF1
:1012F000BF4F2C91848D90E001968F739927848F36
:10130000A689B7892C93A089B1898C9180648C932C
:10131000938D848D981306C00288F389E02D808117
:101320008F7D80830895CF93DF93EC01888D882390
:10133000C9F0EA89FB89808185FD05C0A889B98942
:101340008C9186FD0FC00FB607FCF5CF808185FF1D
:10135000F2CFA889B9898C9185FFEDCFCE010E948B
:101360007209E7CFDF91CF910895CF92DF92FF927C
:101370000F931F93CF93DF931F92CDB7DEB76C010E
:1013800081E0D60158968C9358975B969C915B9719
:101390005C968C915C97981307C05096ED91FC91E8
:1013A0005197808185FD2EC0F601038D10E00F5FFF
:1013B0001F4F0F731127F02EF601848DF81211C004
:1013C0000FB607FCF9CFD6015096ED91FC915197DD
:1013D000808185FFF1CFC60169830E94720969810E
:1013E000EBCF838DE80FF11DE35AFF4F6083D601E9
:1013F0005B960C935B975296ED91FC91539780818D
:1014000080620CC0D6015696ED91FC91579760838F
:101410005096ED91FC91519780818064808381E0AA
:1014200090E00F90DF91CF911F910F91FF90DF908F
:10143000CF900895BF92CF92DF92EF92FF92CF9319
:10144000DF93EC016A017B01B22EE889F98982E021
:101450008083411581EE580761057105A1F060E0B8
:1014600079E08DE390E0A70196010E945A0E215089
:101470003109410951095695479537952795211509
:1014800080E1380798F0E889F989108260E874E80B
:101490008EE190E0A70196010E945A0E2150310979
:1014A000410951095695479537952795EC85FD8556
:1014B0003083EE85FF852083188EEC89FD89B0820C
:1014C000EA89FB89808180618083EA89FB89808148
:1014D00088608083EA89FB89808180688083EA89CB
:1014E000FB8980818F7D8083DF91CF91FF90EF908A
:1014F000DF90CF90BF9008951F920F920FB60F927A
:1015000011242F938F939F93EF93FF93E0914B02BE
:10151000F0914C028081E0915102F091520282FDE3
:1015200012C09081809154028F5F8F732091550279
:10153000821751F0E0915402F0E0E55CFD4F958F89
:101540008093540201C08081FF91EF919F918F9110
:101550002F910F900FBE0F901F9018951F920F9212
:101560000FB60F9211242F933F934F935F936F9376
:101570007F938F939F93AF93BF93EF93FF938BE3EF
:1015800092E00E947209FF91EF91BF91AF919F91FC
:101590008F917F916F915F914F913F912F910F901C
:1015A0000FBE0F901F9018958BE392E00E943709B1
:1015B00021E0892B09F420E0822F089510923E0249
:1015C00010923D0288EE93E0A0E0B0E080933F02ED
:1015D00090934002A0934102B093420288E191E0CF
:1015E00090933C0280933B0285EC90E090934802FC
:1015F0008093470284EC90E090934A0280934902E2
:1016000080EC90E090934C0280934B0281EC90E050
:1016100090934E0280934D0282EC90E090935002A2
:1016200080934F0286EC90E0909352028093510297
:1016300010925402109255021092560210925702C4
:10164000089508950E9464080E94210B0E94A7003B
:10165000C4E6D9E00E94DF002097E1F30E9464090C
:10166000F9CFCF92DF92EF92FF920F931F93CF9318
:10167000DF936C017A01EB01E60EF71E00E010E04B
:10168000CE15DF0561F06991D601ED91FC910190D5
:10169000F081E02DC6010995080F191FF1CFC8018F
:1016A000DF91CF911F910F91FF90EF90DF90CF903E
:1016B00008954F925F926F927F92AF92BF92CF92B6
:1016C000DF92EF92FF920F931F93CF93DF93CDB7EB
:1016D000DEB729013A01621B730B840B950B298934
:1016E0003A894B895C892A193B094C095D09298B88
:1016F0003A8B4B8B5C8B9B01AC0169897A898B8916
:101700009C890E943E0EE418F50806091709A801F5
:1017100097010E947C0E2A0D3B1D4C1D5D1DCA01C8
:10172000B901DF91CF911F910F91FF90EF90DF9062
:10173000CF90BF90AF907F906F905F904F90089543
:1017400008955058BB27AA270ED09AC18BD130F0EC
:1017500090D120F031F49F3F11F41EF45BC10EF4E0
:10176000E095E7FB51C1E92F9CD180F3BA176207DE
:1017700073078407950718F071F49EF5B4C10EF451
:10178000E0950B2EBA2FA02D0B01B90190010C0191
:10179000CA01A0011124FF27591B99F0593F50F4A9
:1017A000503E68F11A16F040A22F232F342F442701
:1017B000585FF3CF469537952795A795F0405395F9
:1017C000C9F77EF41F16BA0B620B730B840BBAF0C9
:1017D0009150A1F0FF0FBB1F661F771F881FC2F734
:1017E0000EC0BA0F621F731F841F48F48795779548
:1017F0006795B795F7959E3F08F0B3CF9395880FFF
:1018000008F09927EE0F979587950895DF93DD27C8
:10181000B92FBF7740E85FE31616170648075B0746
:1018200010F4D92F67D19F938F937F936F930ED22C
:10183000E8E6F0E0F2D024D12F913F914F915F91F3
:101840006CD1DD2349F09058A2EA2AED3FE049EC43
:101850005FE3D0785D2787DFDF9112C10CD010C124
:1018600008D140F0FFD030F021F45F3F19F0CCC038
:1018700051113AC1CFC015D198F39923C9F355231B
:10188000B1F3951B550BBB27AA2762177307840773
:1018900038F09F5F5F4F220F331F441FAA1FA9F329
:1018A00033D00E2E3AF0E0E830D091505040E6951B
:1018B000001CCAF729D0FE2F27D0660F771F881F7C
:1018C000BB1F261737074807AB07B0E809F0BB0B6B
:1018D000802DBF01FF2793585F4F2AF09E3F51058F
:1018E00068F092C001C15F3FECF3983EDCF386954F
:1018F00077956795B795F7959F5FC9F7880F911D05
:101900009695879597F90895E1E0660F771F881FF0
:10191000BB1F621773078407BA0720F0621B730BA3
:10192000840BBA0BEE1F88F7E095089504D06894F5
:10193000B111DAC00895BDD088F09F5790F0B92F4B
:101940009927B751A0F0D1F0660F771F881F991F14
:101950001AF0BA95C9F712C0B13081F0C4D0B1E025
:101960000895C1C0672F782F8827B85F39F0B93F35
:10197000CCF3869577956795B395D9F73EF4909516
:101980008095709561957F4F8F4F9F4F0895E89494
:1019900009C097FB3EF490958095709561957F4FB7
:1019A0008F4F9F4F9923A9F0F92F96E9BB27939565
:1019B000F695879577956795B795F111F8CFFAF475
:1019C000BB0F11F460FF1BC06F5F7F4F8F4F9F4FA6
:1019D00016C0882311F096E911C0772321F09EE804
:1019E000872F762F05C0662371F096E8862F70E06A
:1019F00060E02AF09A95660F771F881FDAF7880F44
:101A00009695879597F9089597F99F6780E870E014
:101A100060E008959FEF80EC0895DF93CF931F93CC
:101A20000F93FF92EF92DF927B018C01689405C0C7
:101A3000DA2EEF0172D0FE01E894A591259135913F
:101A400045915591AEF3EF018EDEFE019701A8019D
:101A5000DA9479F7DF90EF90FF900F911F91CF917B
:101A6000DF91089500240A94161617061806090631
:101A7000089500240A941216130614060506089504
:101A8000092E0394000C11F4882352F0BB0F40F48C
:101A9000BF2B11F460FF04C06F5F7F4F8F4F9F4FCC
:101AA000089557FD9058440F551F59F05F3F71F04E
:101AB0004795880F97FB991F61F09F3F79F08795B5
:101AC0000895121613061406551FF2CF4695F1DF3E
:101AD00008C0161617061806991FF1CF86957105CE
:101AE000610508940895E894BB2766277727CB0102
:101AF00097F908959B01AC0160E070E080E89FE3F6
:101B0000ADCE0BD0BDCFAEDF28F0B3DF18F09523FC
:101B100009F07ACF7FCF1124E7CFC3DFA0F3959FE1
:101B2000D1F3950F50E0551F629FF001729FBB27C4
:101B3000F00DB11D639FAA27F00DB11DAA1F649F70
:101B40006627B00DA11D661F829F2227B00DA11D23
:101B5000621F739FB00DA11D621F839FA00D611DA9
:101B6000221F749F3327A00D611D231F849F600DCA
:101B7000211D822F762F6A2F11249F5750408AF003
:101B8000E1F088234AF0EE0FFF1FBB1F661F771F8F
:101B9000881F91505040A9F79E3F510570F034CFF7
:101BA000A3CF5F3FECF3983EDCF38695779567957E
:101BB000B795F795E7959F5FC1F7FE2B880F911DAD
:101BC0009695879597F9089511F40EF423CF41C0A7
:101BD00070DFD0F39923D9F3CEF39F57550B87FFCE
:101BE00046D00024A0E640EA90018058569597958B
:101BF00028F4805C660F771F881F20F026173707B0
:101C0000480730F4621B730B840B202931294A2BBF
:101C1000A69517940794202531254A2758F7660F73
:101C2000771F881F20F026173707480730F4620B0C
:101C3000730B840B200D311D411DA09581F7B90157
:101C4000842F9158880F9695879508959B01AC0134
:101C500058CF9F3F31F0915020F487957795679545
:101C6000B795880F911D9695879597F9089591508E
:101C70005040660F771F881FD2F70895DB018F93BE
:101C80009F930E949B0EBF91AF91A29F800D911DCB
:101C9000A39F900DB29F900D11240895991B79E098
:101CA00004C0991F961708F0961B881F7A95C9F7EC
:101CB00080950895A1E21A2EAA1BBB1BFD010DC041
:101CC000AA1FBB1FEE1FFF1FA217B307E407F507EC
:101CD00020F0A21BB30BE40BF50B661F771F881FC8
:101CE000991F1A9469F760957095809590959B015E
:101CF000AC01BD01CF010895052E97FB1EF40094A1
:101D00000E94930E57FD07D00E945A0E07FC03D085
:101D10004EF40C94930E50954095309521953F4F7D
:101D20004F4F5F4F089590958095709561957F4FC7
:101D30008F4F9F4F08950E94AC0EA59F900DB49FAA
:101D4000900DA49F800D911D11240895EE0FFF1F8B
:101D50000590F491E02D0994A29FB001B39FC001BA
:101D6000A39F700D811D1124911DB29F700D811DC7
:0A1D70001124911D0895F894FFCF8F
:101D7A00010000000000000049051C05F104F904F7
:101D8A000C051B0500000000B509310B3709500985
:041D9A00420993095E
:00000001FF
